:100000000C9446000C9465000C9465000C946500FB
:100010000C9465000C9465000C9465000C946500CC
:100020000C9465000C9465000C9465000C946500BC
:100030000C9465000C9465000C9465000C946500AC
:100040000C9465000C9465000C9465000C9465009C
:100050000C9465000C9465000C9465000C9465008C
:100060000C9465000C9465000C9465000C9465007C
:100070000C9465000C9465000C9465000C9465006C
:100080000C9465000C9465000C94650011241FBE4F
:10009000CFEFD0E4DEBFCDBF11E0A0E0B1E0E8EDEE
:1000A000F1E000E00BBF02C007900D92AE30B10747
:1000B000D9F721E0AEE0B1E001C01D92A031B20756
:1000C000E1F70E9490000C94EA000C940000CF939A
:1000D000DF9300D00F92CDB7DEB789837B836A832D
:1000E00089818A3031F48A819B81BC018DE00E9434
:1000F000670080EC90E0FC018081882F90E08072A6
:100100009927892BB1F386EC90E02981FC012083AB
:1001100080E090E00F900F900F90DF91CF910895C5
:10012000CF93DF93CDB7DEB781E290E0FC01108280
:1001300082E290E02FEFFC01208387E290E02FEF36
:10014000FC01208388E290E0FC01108210920E01F5
:1001500080E290E0FC01808180958F7080930F0198
:1001600080910F018D3020F08FE380930E012BC022
:1001700080910F018A3020F08EE380930E0123C01E
:1001800080910F01873020F08CE380930E011BC01B
:1001900080910F01853020F088E380930E0113C019
:1001A00080910F01833020F080E780930E010BC017
:1001B00080910F01882321F080E680930E0103C017
:1001C00080E480930E0188E290E020910E01FC0112
:0801D0002083BCCFF894FFCF9F
:0E01D8000000000200000000670000000000B0
:00000001FF
